{
  "_format": "hh-sol-artifact-1",
  "contractName": "EthiqReverter",
  "sourceName": "solidity/precompiles/testutil/contracts/EthiqReverter.sol",
  "abi": [
    {
      "inputs": [],
      "stateMutability": "payable",
      "type": "constructor"
    },
    {
      "inputs": [
        {
          "internalType": "uint256",
          "name": "numTimes",
          "type": "uint256"
        },
        {
          "internalType": "address",
          "name": "toAddress",
          "type": "address"
        }
      ],
      "name": "multipleBurnMints",
      "outputs": [],
      "stateMutability": "nonpayable",
      "type": "function"
    },
    {
      "inputs": [
        {
          "internalType": "address",
          "name": "toAddress",
          "type": "address"
        }
      ],
      "name": "performMintHaqq",
      "outputs": [],
      "stateMutability": "nonpayable",
      "type": "function"
    },
    {
      "inputs": [
        {
          "internalType": "uint256",
          "name": "numTimes",
          "type": "uint256"
        },
        {
          "internalType": "address",
          "name": "toAddress",
          "type": "address"
        }
      ],
      "name": "run",
      "outputs": [],
      "stateMutability": "nonpayable",
      "type": "function"
    }
  ],
  "bytecode": "0x608060405260008055610502806100176000396000f3fe608060405234801561001057600080fd5b50600436106100415760003560e01c80635e1250d814610046578063f961426714610062578063fd1f78a51461007e575b600080fd5b610060600480360381019061005b9190610300565b61009a565b005b61007c60048036038101906100779190610300565b610139565b005b61009860048036038101906100939190610340565b6101de565b005b6000808154809291906100ac9061039c565b919050555060005b82811015610134573073ffffffffffffffffffffffffffffffffffffffff1663fd1f78a5836040518263ffffffff1660e01b81526004016100f591906103f3565b600060405180830381600087803b15801561010f57600080fd5b505af1925050508015610120575060015b50808061012c9061039c565b9150506100b4565b505050565b60008081548092919061014b9061039c565b919050555060005b828110156101d9573073ffffffffffffffffffffffffffffffffffffffff1663fd1f78a5836040518263ffffffff1660e01b815260040161019491906103f3565b600060405180830381600087803b1580156101ae57600080fd5b505af11580156101c2573d6000803e3d6000fd5b5050505080806101d19061039c565b915050610153565b505050565b61090073ffffffffffffffffffffffffffffffffffffffff1663aa91b00e30836103e86040518463ffffffff1660e01b815260040161021f93929190610453565b6020604051808303816000875af115801561023e573d6000803e3d6000fd5b505050506040513d601f19601f82011682018060405250810190610262919061049f565b600080fd5b600080fd5b6000819050919050565b61027f8161026c565b811461028a57600080fd5b50565b60008135905061029c81610276565b92915050565b600073ffffffffffffffffffffffffffffffffffffffff82169050919050565b60006102cd826102a2565b9050919050565b6102dd816102c2565b81146102e857600080fd5b50565b6000813590506102fa816102d4565b92915050565b6000806040838503121561031757610316610267565b5b60006103258582860161028d565b9250506020610336858286016102eb565b9150509250929050565b60006020828403121561035657610355610267565b5b6000610364848285016102eb565b91505092915050565b7f4e487b7100000000000000000000000000000000000000000000000000000000600052601160045260246000fd5b60006103a78261026c565b91507fffffffffffffffffffffffffffffffffffffffffffffffffffffffffffffffff82036103d9576103d861036d565b5b600182019050919050565b6103ed816102c2565b82525050565b600060208201905061040860008301846103e4565b92915050565b6000819050919050565b6000819050919050565b600061043d6104386104338461040e565b610418565b61026c565b9050919050565b61044d81610422565b82525050565b600060608201905061046860008301866103e4565b61047560208301856103e4565b6104826040830184610444565b949350505050565b60008151905061049981610276565b92915050565b6000602082840312156104b5576104b4610267565b5b60006104c38482850161048a565b9150509291505056fea2646970667358221220ec6f7b0c6a0af663575a486f5576e3cd196f878e41c6e96a9aee51531f3d005b64736f6c63430008140033",
  "linkReferences": {},
  "deployedLinkReferences": {}
}