{
  "_format": "hh-sol-artifact-1",
  "contractName": "EthiqCallerTwo",
  "sourceName": "solidity/precompiles/ethiq/testdata/EthiqCallerTwo.sol",
  "abi": [
    {
      "inputs": [],
      "name": "counter",
      "outputs": [
        {
          "internalType": "uint256",
          "name": "",
          "type": "uint256"
        }
      ],
      "stateMutability": "view",
      "type": "function"
    },
    {
      "inputs": [
        {
          "internalType": "address",
          "name": "_addr",
          "type": "address"
        },
        {
          "internalType": "string[]",
          "name": "_methods",
          "type": "string[]"
        },
        {
          "internalType": "uint256",
          "name": "_amount",
          "type": "uint256"
        }
      ],
      "name": "testApprove",
      "outputs": [],
      "stateMutability": "nonpayable",
      "type": "function"
    },
    {
      "inputs": [
        {
          "internalType": "address payable",
          "name": "_addr",
          "type": "address"
        },
        {
          "internalType": "uint256",
          "name": "_amount",
          "type": "uint256"
        },
        {
          "internalType": "bool",
          "name": "_before",
          "type": "bool"
        },
        {
          "internalType": "bool",
          "name": "_after",
          "type": "bool"
        }
      ],
      "name": "testMintHaqqWithCounterAndTransfer",
      "outputs": [],
      "stateMutability": "nonpayable",
      "type": "function"
    },
    {
      "inputs": [
        {
          "internalType": "address payable",
          "name": "_dest",
          "type": "address"
        },
        {
          "internalType": "address payable",
          "name": "_burner",
          "type": "address"
        },
        {
          "internalType": "uint256",
          "name": "_amount",
          "type": "uint256"
        },
        {
          "internalType": "bool",
          "name": "_before",
          "type": "bool"
        },
        {
          "internalType": "bool",
          "name": "_after",
          "type": "bool"
        }
      ],
      "name": "testMintHaqqWithTransfer",
      "outputs": [],
      "stateMutability": "nonpayable",
      "type": "function"
    }
  ],
  "bytecode": "0x608060405234801561001057600080fd5b50610d9d806100206000396000f3fe608060405234801561001057600080fd5b506004361061004c5760003560e01c80630a4433e21461005157806350df20f01461006d57806361bc221a14610089578063e6880d23146100a7575b600080fd5b61006b600480360381019061006691906106de565b6100c3565b005b610087600480360381019061008291906107c8565b610192565b005b6100916103b4565b60405161009e9190610852565b60405180910390f35b6100c160048036038101906100bc919061086d565b6103ba565b005b600061090073ffffffffffffffffffffffffffffffffffffffff1663b6039895868487876040518563ffffffff1660e01b81526004016101069493929190610a67565b6020604051808303816000875af1158015610125573d6000803e3d6000fd5b505050506040513d601f19601f820116820180604052508101906101499190610abc565b90508061018b576040517f08c379a000000000000000000000000000000000000000000000000000000000815260040161018290610b46565b60405180910390fd5b5050505050565b811561025e576000808154809291906101aa90610b95565b919050555060008573ffffffffffffffffffffffffffffffffffffffff16600f6040516101d690610c0e565b60006040518083038185875af1925050503d8060008114610213576040519150601f19603f3d011682016040523d82523d6000602084013e610218565b606091505b505090508061025c576040517f08c379a000000000000000000000000000000000000000000000000000000000815260040161025390610c6f565b60405180910390fd5b505b61090073ffffffffffffffffffffffffffffffffffffffff1663aa91b00e8586866040518463ffffffff1660e01b815260040161029d93929190610cee565b6020604051808303816000875af11580156102bc573d6000803e3d6000fd5b505050506040513d601f19601f820116820180604052508101906102e09190610d3a565b5080156103ad576000808154809291906102f990610b95565b919050555060008573ffffffffffffffffffffffffffffffffffffffff16600f60405161032590610c0e565b60006040518083038185875af1925050503d8060008114610362576040519150601f19603f3d011682016040523d82523d6000602084013e610367565b606091505b50509050806103ab576040517f08c379a00000000000000000000000000000000000000000000000000000000081526004016103a290610c6f565b60405180910390fd5b505b5050505050565b60005481565b8115610486576000808154809291906103d290610b95565b919050555060008473ffffffffffffffffffffffffffffffffffffffff16600f6040516103fe90610c0e565b60006040518083038185875af1925050503d806000811461043b576040519150601f19603f3d011682016040523d82523d6000602084013e610440565b606091505b5050905080610484576040517f08c379a000000000000000000000000000000000000000000000000000000000815260040161047b90610c6f565b60405180910390fd5b505b61090073ffffffffffffffffffffffffffffffffffffffff1663aa91b00e8586866040518463ffffffff1660e01b81526004016104c593929190610cee565b6020604051808303816000875af11580156104e4573d6000803e3d6000fd5b505050506040513d601f19601f820116820180604052508101906105089190610d3a565b5080156105d55760008081548092919061052190610b95565b919050555060008473ffffffffffffffffffffffffffffffffffffffff16600f60405161054d90610c0e565b60006040518083038185875af1925050503d806000811461058a576040519150601f19603f3d011682016040523d82523d6000602084013e61058f565b606091505b50509050806105d3576040517f08c379a00000000000000000000000000000000000000000000000000000000081526004016105ca90610c6f565b60405180910390fd5b505b50505050565b600080fd5b600080fd5b600073ffffffffffffffffffffffffffffffffffffffff82169050919050565b6000610610826105e5565b9050919050565b61062081610605565b811461062b57600080fd5b50565b60008135905061063d81610617565b92915050565b600080fd5b600080fd5b600080fd5b60008083601f84011261066857610667610643565b5b8235905067ffffffffffffffff81111561068557610684610648565b5b6020830191508360208202830111156106a1576106a061064d565b5b9250929050565b6000819050919050565b6106bb816106a8565b81146106c657600080fd5b50565b6000813590506106d8816106b2565b92915050565b600080600080606085870312156106f8576106f76105db565b5b60006107068782880161062e565b945050602085013567ffffffffffffffff811115610727576107266105e0565b5b61073387828801610652565b93509350506040610746878288016106c9565b91505092959194509250565b600061075d826105e5565b9050919050565b61076d81610752565b811461077857600080fd5b50565b60008135905061078a81610764565b92915050565b60008115159050919050565b6107a581610790565b81146107b057600080fd5b50565b6000813590506107c28161079c565b92915050565b600080600080600060a086880312156107e4576107e36105db565b5b60006107f28882890161077b565b95505060206108038882890161077b565b9450506040610814888289016106c9565b9350506060610825888289016107b3565b9250506080610836888289016107b3565b9150509295509295909350565b61084c816106a8565b82525050565b60006020820190506108676000830184610843565b92915050565b60008060008060808587031215610887576108866105db565b5b60006108958782880161077b565b94505060206108a6878288016106c9565b93505060406108b7878288016107b3565b92505060606108c8878288016107b3565b91505092959194509250565b6108dd81610605565b82525050565b600082825260208201905092915050565b6000819050919050565b600082825260208201905092915050565b82818337600083830152505050565b6000601f19601f8301169050919050565b600061093b83856108fe565b935061094883858461090f565b6109518361091e565b840190509392505050565b600061096984848461092f565b90509392505050565b600080fd5b600080fd5b600080fd5b6000808335600160200384360303811261099e5761099d61097c565b5b83810192508235915060208301925067ffffffffffffffff8211156109c6576109c5610972565b5b6001820236038313156109dc576109db610977565b5b509250929050565b6000602082019050919050565b60006109fd83856108e3565b935083602084028501610a0f846108f4565b8060005b87811015610a55578484038952610a2a8284610981565b610a3586828461095c565b9550610a40846109e4565b935060208b019a505050600181019050610a13565b50829750879450505050509392505050565b6000606082019050610a7c60008301876108d4565b610a896020830186610843565b8181036040830152610a9c8184866109f1565b905095945050505050565b600081519050610ab68161079c565b92915050565b600060208284031215610ad257610ad16105db565b5b6000610ae084828501610aa7565b91505092915050565b600082825260208201905092915050565b7f4661696c656420746f20617070726f7665206574686971206d6574686f647300600082015250565b6000610b30601f83610ae9565b9150610b3b82610afa565b602082019050919050565b60006020820190508181036000830152610b5f81610b23565b9050919050565b7f4e487b7100000000000000000000000000000000000000000000000000000000600052601160045260246000fd5b6000610ba0826106a8565b91507fffffffffffffffffffffffffffffffffffffffffffffffffffffffffffffffff8203610bd257610bd1610b66565b5b600182019050919050565b600081905092915050565b50565b6000610bf8600083610bdd565b9150610c0382610be8565b600082019050919050565b6000610c1982610beb565b9150819050919050565b7f4661696c656420746f2073656e6420457468657220746f206275726e65720000600082015250565b6000610c59601e83610ae9565b9150610c6482610c23565b602082019050919050565b60006020820190508181036000830152610c8881610c4c565b9050919050565b6000819050919050565b6000610cb4610caf610caa846105e5565b610c8f565b6105e5565b9050919050565b6000610cc682610c99565b9050919050565b6000610cd882610cbb565b9050919050565b610ce881610ccd565b82525050565b6000606082019050610d036000830186610cdf565b610d106020830185610cdf565b610d1d6040830184610843565b949350505050565b600081519050610d34816106b2565b92915050565b600060208284031215610d5057610d4f6105db565b5b6000610d5e84828501610d25565b9150509291505056fea26469706673582212201ff51467a30a87e8610e0cd3790cf2dde0c64a22aa47c41f1761ad4bf273e70664736f6c63430008140033",
  "linkReferences": {},
  "deployedLinkReferences": {}
}