{
  "_format": "hh-sol-artifact-1",
  "contractName": "EthiqCaller",
  "sourceName": "solidity/precompiles/ethiq/testdata/EthiqCaller.sol",
  "abi": [
    {
      "inputs": [
        {
          "internalType": "address",
          "name": "_to_addr",
          "type": "address"
        }
      ],
      "name": "approveDepositAndMintHaqq",
      "outputs": [],
      "stateMutability": "payable",
      "type": "function"
    },
    {
      "inputs": [
        {
          "internalType": "address",
          "name": "_to_addr",
          "type": "address"
        }
      ],
      "name": "approveDepositAndMintHaqqExceedingAllowance",
      "outputs": [],
      "stateMutability": "payable",
      "type": "function"
    },
    {
      "inputs": [
        {
          "internalType": "address",
          "name": "_to_addr",
          "type": "address"
        }
      ],
      "name": "approveDepositMintHaqqAndFailCustomLogic",
      "outputs": [],
      "stateMutability": "payable",
      "type": "function"
    },
    {
      "inputs": [],
      "name": "counter",
      "outputs": [
        {
          "internalType": "uint256",
          "name": "",
          "type": "uint256"
        }
      ],
      "stateMutability": "view",
      "type": "function"
    },
    {
      "inputs": [
        {
          "internalType": "address",
          "name": "_grantee",
          "type": "address"
        },
        {
          "internalType": "string",
          "name": "method",
          "type": "string"
        }
      ],
      "name": "getAllowance",
      "outputs": [
        {
          "internalType": "uint256",
          "name": "allowance",
          "type": "uint256"
        }
      ],
      "stateMutability": "view",
      "type": "function"
    },
    {
      "inputs": [
        {
          "internalType": "address",
          "name": "_addr",
          "type": "address"
        },
        {
          "internalType": "string[]",
          "name": "_methods",
          "type": "string[]"
        },
        {
          "internalType": "uint256",
          "name": "_amount",
          "type": "uint256"
        }
      ],
      "name": "testApprove",
      "outputs": [],
      "stateMutability": "nonpayable",
      "type": "function"
    },
    {
      "inputs": [
        {
          "internalType": "address",
          "name": "_addr",
          "type": "address"
        },
        {
          "internalType": "uint256",
          "name": "_approveAmount",
          "type": "uint256"
        },
        {
          "internalType": "uint256",
          "name": "_burnAmount",
          "type": "uint256"
        },
        {
          "internalType": "address",
          "name": "_to_addr",
          "type": "address"
        }
      ],
      "name": "testApproveAndThenMintHaqq",
      "outputs": [],
      "stateMutability": "nonpayable",
      "type": "function"
    },
    {
      "inputs": [
        {
          "internalType": "address",
          "name": "_addr",
          "type": "address"
        },
        {
          "internalType": "address",
          "name": "_to_addr",
          "type": "address"
        },
        {
          "internalType": "uint256",
          "name": "_burnAmount",
          "type": "uint256"
        },
        {
          "internalType": "string",
          "name": "_calltype",
          "type": "string"
        }
      ],
      "name": "testCallMintHaqq",
      "outputs": [
        {
          "internalType": "uint256",
          "name": "minted",
          "type": "uint256"
        }
      ],
      "stateMutability": "nonpayable",
      "type": "function"
    },
    {
      "inputs": [
        {
          "internalType": "address",
          "name": "_from_addr",
          "type": "address"
        },
        {
          "internalType": "address",
          "name": "_to_addr",
          "type": "address"
        },
        {
          "internalType": "uint256",
          "name": "_amount",
          "type": "uint256"
        }
      ],
      "name": "testMintHaqq",
      "outputs": [],
      "stateMutability": "nonpayable",
      "type": "function"
    },
    {
      "inputs": [
        {
          "internalType": "address",
          "name": "_to_addr",
          "type": "address"
        },
        {
          "internalType": "uint256",
          "name": "_burnAmount",
          "type": "uint256"
        }
      ],
      "name": "testMintHaqqIncrementCounter",
      "outputs": [],
      "stateMutability": "nonpayable",
      "type": "function"
    },
    {
      "inputs": [
        {
          "internalType": "address",
          "name": "_grantee",
          "type": "address"
        },
        {
          "internalType": "string[]",
          "name": "_methods",
          "type": "string[]"
        }
      ],
      "name": "testRevoke",
      "outputs": [],
      "stateMutability": "nonpayable",
      "type": "function"
    }
  ],
  "bytecode": "0x608060405260405180602001604052806040518060400160405280601a81526020017f2f686171712e65746869712e76312e4d73674d696e744861717100000000000081525081525060019060016200005a9291906200006f565b503480156200006857600080fd5b50620004bd565b828054828255906000526020600020908101928215620000bc579160200282015b82811115620000bb578251829081620000aa9190620003d6565b509160200191906001019062000090565b5b509050620000cb9190620000cf565b5090565b5b80821115620000f35760008181620000e99190620000f7565b50600101620000d0565b5090565b5080546200010590620001c5565b6000825580601f106200011957506200013a565b601f0160209004906000526020600020908101906200013991906200013d565b5b50565b5b80821115620001585760008160009055506001016200013e565b5090565b600081519050919050565b7f4e487b7100000000000000000000000000000000000000000000000000000000600052604160045260246000fd5b7f4e487b7100000000000000000000000000000000000000000000000000000000600052602260045260246000fd5b60006002820490506001821680620001de57607f821691505b602082108103620001f457620001f362000196565b5b50919050565b60008190508160005260206000209050919050565b60006020601f8301049050919050565b600082821b905092915050565b6000600883026200025e7fffffffffffffffffffffffffffffffffffffffffffffffffffffffffffffffff826200021f565b6200026a86836200021f565b95508019841693508086168417925050509392505050565b6000819050919050565b6000819050919050565b6000620002b7620002b1620002ab8462000282565b6200028c565b62000282565b9050919050565b6000819050919050565b620002d38362000296565b620002eb620002e282620002be565b8484546200022c565b825550505050565b600090565b62000302620002f3565b6200030f818484620002c8565b505050565b5b8181101562000337576200032b600082620002f8565b60018101905062000315565b5050565b601f82111562000386576200035081620001fa565b6200035b846200020f565b810160208510156200036b578190505b620003836200037a856200020f565b83018262000314565b50505b505050565b600082821c905092915050565b6000620003ab600019846008026200038b565b1980831691505092915050565b6000620003c6838362000398565b9150826002028217905092915050565b620003e1826200015c565b67ffffffffffffffff811115620003fd57620003fc62000167565b5b620004098254620001c5565b620004168282856200033b565b600060209050601f8311600181146200044e576000841562000439578287015190505b620004458582620003b8565b865550620004b5565b601f1984166200045e86620001fa565b60005b82811015620004885784890151825560018201915060208501945060208101905062000461565b86831015620004a85784890151620004a4601f89168262000398565b8355505b6001600288020188555050505b505050505050565b6124ae80620004cd6000396000f3fe60806040526004361061009c5760003560e01c806350d65ecb1161006457806350d65ecb1461016857806361bc221a146101915780637466a84b146101bc578063b2a289d7146101e5578063ec9485df14610201578063f700dbd21461023e5761009c565b80630a4433e2146100a15780632cb5887a146100ca5780633470452b146100e65780634439bf3214610102578063474f5bc81461013f575b600080fd5b3480156100ad57600080fd5b506100c860048036038101906100c39190611274565b610267565b005b6100e460048036038101906100df91906112e8565b610336565b005b61010060048036038101906100fb91906112e8565b610490565b005b34801561010e57600080fd5b5061012960048036038101906101249190611456565b610625565b60405161013691906114e8565b60405180910390f35b34801561014b57600080fd5b5061016660048036038101906101619190611503565b610aa6565b005b34801561017457600080fd5b5061018f600480360381019061018a919061156a565b610c9f565b005b34801561019d57600080fd5b506101a6610d55565b6040516101b391906114e8565b60405180910390f35b3480156101c857600080fd5b506101e360048036038101906101de91906115bd565b610d5b565b005b6101ff60048036038101906101fa91906112e8565b610ec3565b005b34801561020d57600080fd5b50610228600480360381019061022391906115fd565b611011565b60405161023591906114e8565b60405180910390f35b34801561024a57600080fd5b5061026560048036038101906102609190611659565b61109b565b005b600061090073ffffffffffffffffffffffffffffffffffffffff1663b6039895868487876040518563ffffffff1660e01b81526004016102aa949392919061182c565b6020604051808303816000875af11580156102c9573d6000803e3d6000fd5b505050506040513d601f19601f820116820180604052508101906102ed91906118a4565b90508061032f576040517f08c379a00000000000000000000000000000000000000000000000000000000081526004016103269061192e565b60405180910390fd5b5050505050565b600061090073ffffffffffffffffffffffffffffffffffffffff1663b6039895323460016040518463ffffffff1660e01b815260040161037893929190611afc565b6020604051808303816000875af1158015610397573d6000803e3d6000fd5b505050506040513d601f19601f820116820180604052508101906103bb91906118a4565b9050806103fd576040517f08c379a00000000000000000000000000000000000000000000000000000000081526004016103f490611b86565b60405180910390fd5b61090073ffffffffffffffffffffffffffffffffffffffff1663aa91b00e308460013461042a9190611bd5565b6040518463ffffffff1660e01b815260040161044893929190611c09565b6020604051808303816000875af1158015610467573d6000803e3d6000fd5b505050506040513d601f19601f8201168201806040525081019061048b9190611c55565b505050565b600061090073ffffffffffffffffffffffffffffffffffffffff1663b6039895323460016040518463ffffffff1660e01b81526004016104d293929190611afc565b6020604051808303816000875af11580156104f1573d6000803e3d6000fd5b505050506040513d601f19601f8201168201806040525081019061051591906118a4565b905080610557576040517f08c379a000000000000000000000000000000000000000000000000000000000815260040161054e90611b86565b60405180910390fd5b61090073ffffffffffffffffffffffffffffffffffffffff1663aa91b00e3084346040518463ffffffff1660e01b815260040161059693929190611c09565b6020604051808303816000875af11580156105b5573d6000803e3d6000fd5b505050506040513d601f19601f820116820180604052508101906105d99190611c55565b503373ffffffffffffffffffffffffffffffffffffffff166108fc349081150290604051600060405180830381858888f19350505050158015610620573d6000803e3d6000fd5b505050565b6000806109009050600086868660405160240161064493929190611c09565b6040516020818303038152906040527faa91b00e000000000000000000000000000000000000000000000000000000007bffffffffffffffffffffffffffffffffffffffffffffffffffffffff19166020820180517bffffffffffffffffffffffffffffffffffffffffffffffffffffffff838183161783525050505090506000846040516020016106d69190611cf3565b6040516020818303038152906040528051906020012090506040516020016106fd90611d56565b6040516020818303038152906040528051906020012081036107e3576000808473ffffffffffffffffffffffffffffffffffffffff16846040516107419190611db2565b600060405180830381855af49150503d806000811461077c576040519150601f19603f3d011682016040523d82523d6000602084013e610781565b606091505b5091509150816107c6576040517f08c379a00000000000000000000000000000000000000000000000000000000081526004016107bd90611e3b565b60405180910390fd5b808060200190518101906107da9190611c55565b95505050610a9b565b6040516020016107f290611ea7565b6040516020818303038152906040528051906020012081036108d8576000808473ffffffffffffffffffffffffffffffffffffffff16846040516108369190611db2565b600060405180830381855afa9150503d8060008114610871576040519150601f19603f3d011682016040523d82523d6000602084013e610876565b606091505b5091509150816108bb576040517f08c379a00000000000000000000000000000000000000000000000000000000081526004016108b290611f08565b60405180910390fd5b808060200190518101906108cf9190611c55565b95505050610a9a565b6040516020016108e790611f74565b6040516020818303038152906040528051906020012081036109cf576000808473ffffffffffffffffffffffffffffffffffffffff168460405161092b9190611db2565b6000604051808303816000865af19150503d8060008114610968576040519150601f19603f3d011682016040523d82523d6000602084013e61096d565b606091505b5091509150816109b2576040517f08c379a00000000000000000000000000000000000000000000000000000000081526004016109a990611fd5565b60405180910390fd5b808060200190518101906109c69190611c55565b95505050610a99565b6040516020016109de90612041565b604051602081830303815290604052805190602001208103610a5d576000604051806060016040528060218152602001612458602191398051906020012090506000606490506040518281528a6004820152896024820152886044820152602081838360008a5af28151975080610a5457600080fd5b50505050610a98565b6040517f08c379a0000000000000000000000000000000000000000000000000000000008152600401610a8f906120a2565b60405180910390fd5b5b5b5b505050949350505050565b6000600167ffffffffffffffff811115610ac357610ac261132b565b5b604051908082528060200260200182016040528015610af657816020015b6060815260200190600190039081610ae15790505b5090506040518060400160405280601a81526020017f2f686171712e65746869712e76312e4d73674d696e744861717100000000000081525081600081518110610b4357610b426120c2565b5b6020026020010181905250600061090073ffffffffffffffffffffffffffffffffffffffff1663b60398958787856040518463ffffffff1660e01b8152600401610b8f939291906121db565b6020604051808303816000875af1158015610bae573d6000803e3d6000fd5b505050506040513d601f19601f82011682018060405250810190610bd291906118a4565b905080610c14576040517f08c379a0000000000000000000000000000000000000000000000000000000008152600401610c0b9061228b565b60405180910390fd5b61090073ffffffffffffffffffffffffffffffffffffffff1663aa91b00e3285876040518463ffffffff1660e01b8152600401610c5393929190611c09565b6020604051808303816000875af1158015610c72573d6000803e3d6000fd5b505050506040513d601f19601f82011682018060405250810190610c969190611c55565b50505050505050565b600080815480929190610cb1906122ab565b919050555061090073ffffffffffffffffffffffffffffffffffffffff1663aa91b00e8484846040518463ffffffff1660e01b8152600401610cf593929190611c09565b6020604051808303816000875af1158015610d14573d6000803e3d6000fd5b505050506040513d601f19601f82011682018060405250810190610d389190611c55565b50600080815480929190610d4b906122f3565b9190505550505050565b60005481565b600061090073ffffffffffffffffffffffffffffffffffffffff1663b6039895308460016040518463ffffffff1660e01b8152600401610d9d93929190611afc565b6020604051808303816000875af1158015610dbc573d6000803e3d6000fd5b505050506040513d601f19601f82011682018060405250810190610de091906118a4565b905080610e22576040517f08c379a0000000000000000000000000000000000000000000000000000000008152600401610e1990611b86565b60405180910390fd5b61090073ffffffffffffffffffffffffffffffffffffffff1663aa91b00e3085856040518463ffffffff1660e01b8152600401610e6193929190611c09565b6020604051808303816000875af1158015610e80573d6000803e3d6000fd5b505050506040513d601f19601f82011682018060405250810190610ea49190611c55565b506001600080828254610eb79190611bd5565b92505081905550505050565b600061090073ffffffffffffffffffffffffffffffffffffffff1663b6039895303460016040518463ffffffff1660e01b8152600401610f0593929190611afc565b6020604051808303816000875af1158015610f24573d6000803e3d6000fd5b505050506040513d601f19601f82011682018060405250810190610f4891906118a4565b905080610f8a576040517f08c379a0000000000000000000000000000000000000000000000000000000008152600401610f8190611b86565b60405180910390fd5b61090073ffffffffffffffffffffffffffffffffffffffff1663aa91b00e3084346040518463ffffffff1660e01b8152600401610fc993929190611c09565b6020604051808303816000875af1158015610fe8573d6000803e3d6000fd5b505050506040513d601f19601f8201168201806040525081019061100c9190611c55565b505050565b600061090073ffffffffffffffffffffffffffffffffffffffff1663fc08930c8433856040518463ffffffff1660e01b815260040161105293929190612355565b602060405180830381865afa15801561106f573d6000803e3d6000fd5b505050506040513d601f19601f820116820180604052508101906110939190611c55565b905092915050565b600061090073ffffffffffffffffffffffffffffffffffffffff166361dc5c3b8585856040518463ffffffff1660e01b81526004016110dc93929190612393565b6020604051808303816000875af11580156110fb573d6000803e3d6000fd5b505050506040513d601f19601f8201168201806040525081019061111f91906118a4565b905080611161576040517f08c379a000000000000000000000000000000000000000000000000000000000815260040161115890612437565b60405180910390fd5b50505050565b6000604051905090565b600080fd5b600080fd5b600073ffffffffffffffffffffffffffffffffffffffff82169050919050565b60006111a68261117b565b9050919050565b6111b68161119b565b81146111c157600080fd5b50565b6000813590506111d3816111ad565b92915050565b600080fd5b600080fd5b600080fd5b60008083601f8401126111fe576111fd6111d9565b5b8235905067ffffffffffffffff81111561121b5761121a6111de565b5b602083019150836020820283011115611237576112366111e3565b5b9250929050565b6000819050919050565b6112518161123e565b811461125c57600080fd5b50565b60008135905061126e81611248565b92915050565b6000806000806060858703121561128e5761128d611171565b5b600061129c878288016111c4565b945050602085013567ffffffffffffffff8111156112bd576112bc611176565b5b6112c9878288016111e8565b935093505060406112dc8782880161125f565b91505092959194509250565b6000602082840312156112fe576112fd611171565b5b600061130c848285016111c4565b91505092915050565b600080fd5b6000601f19601f8301169050919050565b7f4e487b7100000000000000000000000000000000000000000000000000000000600052604160045260246000fd5b6113638261131a565b810181811067ffffffffffffffff821117156113825761138161132b565b5b80604052505050565b6000611395611167565b90506113a1828261135a565b919050565b600067ffffffffffffffff8211156113c1576113c061132b565b5b6113ca8261131a565b9050602081019050919050565b82818337600083830152505050565b60006113f96113f4846113a6565b61138b565b90508281526020810184848401111561141557611414611315565b5b6114208482856113d7565b509392505050565b600082601f83011261143d5761143c6111d9565b5b813561144d8482602086016113e6565b91505092915050565b600080600080608085870312156114705761146f611171565b5b600061147e878288016111c4565b945050602061148f878288016111c4565b93505060406114a08782880161125f565b925050606085013567ffffffffffffffff8111156114c1576114c0611176565b5b6114cd87828801611428565b91505092959194509250565b6114e28161123e565b82525050565b60006020820190506114fd60008301846114d9565b92915050565b6000806000806080858703121561151d5761151c611171565b5b600061152b878288016111c4565b945050602061153c8782880161125f565b935050604061154d8782880161125f565b925050606061155e878288016111c4565b91505092959194509250565b60008060006060848603121561158357611582611171565b5b6000611591868287016111c4565b93505060206115a2868287016111c4565b92505060406115b38682870161125f565b9150509250925092565b600080604083850312156115d4576115d3611171565b5b60006115e2858286016111c4565b92505060206115f38582860161125f565b9150509250929050565b6000806040838503121561161457611613611171565b5b6000611622858286016111c4565b925050602083013567ffffffffffffffff81111561164357611642611176565b5b61164f85828601611428565b9150509250929050565b60008060006040848603121561167257611671611171565b5b6000611680868287016111c4565b935050602084013567ffffffffffffffff8111156116a1576116a0611176565b5b6116ad868287016111e8565b92509250509250925092565b6116c28161119b565b82525050565b600082825260208201905092915050565b6000819050919050565b600082825260208201905092915050565b600061170083856116e3565b935061170d8385846113d7565b6117168361131a565b840190509392505050565b600061172e8484846116f4565b90509392505050565b600080fd5b600080fd5b600080fd5b6000808335600160200384360303811261176357611762611741565b5b83810192508235915060208301925067ffffffffffffffff82111561178b5761178a611737565b5b6001820236038313156117a1576117a061173c565b5b509250929050565b6000602082019050919050565b60006117c283856116c8565b9350836020840285016117d4846116d9565b8060005b8781101561181a5784840389526117ef8284611746565b6117fa868284611721565b9550611805846117a9565b935060208b019a5050506001810190506117d8565b50829750879450505050509392505050565b600060608201905061184160008301876116b9565b61184e60208301866114d9565b81810360408301526118618184866117b6565b905095945050505050565b60008115159050919050565b6118818161186c565b811461188c57600080fd5b50565b60008151905061189e81611878565b92915050565b6000602082840312156118ba576118b9611171565b5b60006118c88482850161188f565b91505092915050565b600082825260208201905092915050565b7f4661696c656420746f20617070726f7665206574686971206d6574686f647300600082015250565b6000611918601f836118d1565b9150611923826118e2565b602082019050919050565b600060208201905081810360008301526119478161190b565b9050919050565b600081549050919050565b60008190508160005260206000209050919050565b7f4e487b7100000000000000000000000000000000000000000000000000000000600052602260045260246000fd5b600060028204905060018216806119b557607f821691505b6020821081036119c8576119c761196e565b5b50919050565b60008190508160005260206000209050919050565b600081546119f08161199d565b6119fa81866116e3565b94506001821660008114611a155760018114611a2b57611a5e565b60ff198316865281151560200286019350611a5e565b611a34856119ce565b60005b83811015611a5657815481890152600182019150602081019050611a37565b808801955050505b50505092915050565b6000611a7383836119e3565b905092915050565b6000600182019050919050565b6000611a938261194e565b611a9d81856116c8565b935083602082028501611aaf85611959565b8060005b85811015611aea57848403895281611acb8582611a67565b9450611ad683611a7b565b925060208a01995050600181019050611ab3565b50829750879550505050505092915050565b6000606082019050611b1160008301866116b9565b611b1e60208301856114d9565b8181036040830152611b308184611a88565b9050949350505050565b7f4d696e7420417070726f7665206661696c656400000000000000000000000000600082015250565b6000611b706013836118d1565b9150611b7b82611b3a565b602082019050919050565b60006020820190508181036000830152611b9f81611b63565b9050919050565b7f4e487b7100000000000000000000000000000000000000000000000000000000600052601160045260246000fd5b6000611be08261123e565b9150611beb8361123e565b9250828201905080821115611c0357611c02611ba6565b5b92915050565b6000606082019050611c1e60008301866116b9565b611c2b60208301856116b9565b611c3860408301846114d9565b949350505050565b600081519050611c4f81611248565b92915050565b600060208284031215611c6b57611c6a611171565b5b6000611c7984828501611c40565b91505092915050565b600081519050919050565b600081905092915050565b60005b83811015611cb6578082015181840152602081019050611c9b565b60008484015250505050565b6000611ccd82611c82565b611cd78185611c8d565b9350611ce7818560208601611c98565b80840191505092915050565b6000611cff8284611cc2565b915081905092915050565b7f64656c656761746563616c6c0000000000000000000000000000000000000000600082015250565b6000611d40600c83611c8d565b9150611d4b82611d0a565b600c82019050919050565b6000611d6182611d33565b9150819050919050565b600081519050919050565b600081905092915050565b6000611d8c82611d6b565b611d968185611d76565b9350611da6818560208601611c98565b80840191505092915050565b6000611dbe8284611d81565b915081905092915050565b7f6661696c65642064656c656761746563616c6c20746f20707265636f6d70696c60008201527f6500000000000000000000000000000000000000000000000000000000000000602082015250565b6000611e256021836118d1565b9150611e3082611dc9565b604082019050919050565b60006020820190508181036000830152611e5481611e18565b9050919050565b7f73746174696363616c6c00000000000000000000000000000000000000000000600082015250565b6000611e91600a83611c8d565b9150611e9c82611e5b565b600a82019050919050565b6000611eb282611e84565b9150819050919050565b7f6661696c65642073746174696363616c6c20746f20707265636f6d70696c6500600082015250565b6000611ef2601f836118d1565b9150611efd82611ebc565b602082019050919050565b60006020820190508181036000830152611f2181611ee5565b9050919050565b7f63616c6c00000000000000000000000000000000000000000000000000000000600082015250565b6000611f5e600483611c8d565b9150611f6982611f28565b600482019050919050565b6000611f7f82611f51565b9150819050919050565b7f6661696c65642063616c6c20746f20707265636f6d70696c6500000000000000600082015250565b6000611fbf6019836118d1565b9150611fca82611f89565b602082019050919050565b60006020820190508181036000830152611fee81611fb2565b9050919050565b7f63616c6c636f6465000000000000000000000000000000000000000000000000600082015250565b600061202b600883611c8d565b915061203682611ff5565b600882019050919050565b600061204c8261201e565b9150819050919050565b7f696e76616c69642063616c6c7479706500000000000000000000000000000000600082015250565b600061208c6010836118d1565b915061209782612056565b602082019050919050565b600060208201905081810360008301526120bb8161207f565b9050919050565b7f4e487b7100000000000000000000000000000000000000000000000000000000600052603260045260246000fd5b600081519050919050565b6000819050602082019050919050565b600061211782611c82565b61212181856116e3565b9350612131818560208601611c98565b61213a8161131a565b840191505092915050565b6000612151838361210c565b905092915050565b6000602082019050919050565b6000612171826120f1565b61217b81856116c8565b93508360208202850161218d856120fc565b8060005b858110156121c957848403895281516121aa8582612145565b94506121b583612159565b925060208a01995050600181019050612191565b50829750879550505050505092915050565b60006060820190506121f060008301866116b9565b6121fd60208301856114d9565b818103604083015261220f8184612166565b9050949350505050565b7f6661696c656420746f20617070726f7665206d696e7448617171206d6574686f60008201527f6400000000000000000000000000000000000000000000000000000000000000602082015250565b60006122756021836118d1565b915061228082612219565b604082019050919050565b600060208201905081810360008301526122a481612268565b9050919050565b60006122b68261123e565b91507fffffffffffffffffffffffffffffffffffffffffffffffffffffffffffffffff82036122e8576122e7611ba6565b5b600182019050919050565b60006122fe8261123e565b91506000820361231157612310611ba6565b5b600182039050919050565b600061232782611c82565b61233181856118d1565b9350612341818560208601611c98565b61234a8161131a565b840191505092915050565b600060608201905061236a60008301866116b9565b61237760208301856116b9565b8181036040830152612389818461231c565b9050949350505050565b60006040820190506123a860008301866116b9565b81810360208301526123bb8184866117b6565b9050949350505050565b7f4661696c656420746f207265766f6b6520617070726f76616c20666f7220657460008201527f686971206d6574686f6473000000000000000000000000000000000000000000602082015250565b6000612421602b836118d1565b915061242c826123c5565b604082019050919050565b6000602082019050818103600083015261245081612414565b905091905056fe6d696e744861717128616464726573732c616464726573732c75696e7432353629a2646970667358221220a74c124df2a5ba518dde1e2e5aba168c653e5f6574b5cd76705b09373ff8007f64736f6c63430008140033",
  "linkReferences": {},
  "deployedLinkReferences": {}
}